:100000000C94B0030C94D8030C94D8030C94D8032C
:100010000C94D8030C94D8030C94D8030C94D803F4
:100020000C94D8030C94D8030C9437090C94A909A8
:100030000C94D8030C94D8030C94D8030C94D803D4
:100040000C94D8030C94D8030C94D8030C94D803C4
:100050000C94D8030C94D8030C94D8030C94ED089A
:100060000C94D8030C94D8030C94D8030C94D803A4
:100070000C94D8030C94D8030C94D8030C94D80394
:100080000C94D8030C94D8030C94D8030C94D80384
:100090000C94D8030C94D8030C94D8030C94D80374
:1000A0000C94D8030C94D8030C94D80300000000DF
:1000B000003E5B4F5B3E3E6B4F6B3E1C3E7C3E1CEE
:1000C000183C7E3C181C577D571C1C5E7F5E1C0034
:1000D000183C1800FFE7C3E7FF0018241800FFE7EB
:1000E000DBE7FF30483A060E2629792926407F05AE
:1000F0000507407F05253F5A3CE73C5A7F3E1C1CC4
:1001000008081C1C3E7F14227F22145F5F005F5F83
:1001100006097F017F006689956A6060606060946F
:10012000A2FFA29408047E040810207E2010080874
:100130002A1C08081C2A08081E101010100C1E0C7F
:100140001E0C30383E3830060E3E0E060000000011
:100150000000005F00000007000700147F147F14F8
:10016000242A7F2A1223130864623649562050003D
:1001700008070300001C2241000041221C002A1C29
:100180007F1C2A08083E0808008070300008080814
:100190000808000060600020100804023E51494534
:1001A0003E00427F400072494949462141494D3352
:1001B0001814127F1027454545393C4A49493141B9
:1001C000211109073649494936464949291E000087
:1001D00014000000403400000008142241141414DC
:1001E0001414004122140802015909063E415D59C8
:1001F0004E7C1211127C7F494949363E41414122D1
:100200007F4141413E7F494949417F090909013EFA
:10021000414151737F0808087F00417F4100204021
:10022000413F017F081422417F404040407F021C33
:10023000027F7F0408107F3E4141413E7F0909094A
:10024000063E4151215E7F09192946264949493216
:1002500003017F01033F4040403F1F2040201F3FDC
:100260004038403F63140814630304780403615961
:10027000494D43007F4141410204081020004141A3
:10028000417F04020102044040404040000307084F
:100290000020545478407F2844443838444444284B
:1002A000384444287F385454541800087E090218F2
:1002B000A4A49C787F0804047800447D400020407A
:1002C000403D007F1028440000417F40007C0478BE
:1002D00004787C080404783844444438FC18242406
:1002E0001818242418FC7C08040408485454542486
:1002F00004043F44243C4040207C1C2040201C3C03
:100300004030403C44281028444C9090907C4464F9
:10031000544C44000836410000007700000041368C
:10032000080002010204023C2623263C1EA1A16112
:10033000123A4040207A3854545559215555794144
:100340002154547841215554784020545579400C1B
:100350001E527212395555555939545454593955FC
:100360005454580000457C410002457D420001453F
:100370007C40F0292429F0F0282528F07C545545AC
:10038000002054547C547C0A097F4932494949323F
:100390003248484832324A4848303A4141217A3A54
:1003A00042402078009DA0A07D39444444393D401E
:1003B00040403D3C24FF2424487E4943662B2FFCCB
:1003C0002F2BFF0929F620C0887E09032054547979
:1003D000410000447D413048484A32384040227A4A
:1003E000007A0A0A727D0D19317D2629292F2826C7
:1003F0002929292630484D402038080808080808CF
:100400000808382F10C8ACBA2F102834FA00007B27
:10041000000008142A142222142A1408950022002D
:1004200095AA005500AAAA55AA55AA000000FF00E7
:10043000101010FF00141414FF001010FF00FF1024
:1004400010F010F0141414FC001414F700FF000056
:10045000FF00FF1414F404FC141417101F10101FD5
:10046000101F1414141F00101010F0000000001FC3
:10047000101010101F10101010F010000000FF10CE
:100480001010101010101010FF10000000FF1400CA
:1004900000FF00FF00001F10170000FC04F41414FC
:1004A0001710171414F404F40000FF00F7141414C8
:1004B00014141414F700F7141414171410101F1048
:1004C0001F141414F4141010F010F000001F101F6B
:1004D0000000001F14000000FC140000F010F010D9
:1004E00010FF10FF141414FF141010101F00000050
:1004F00000F010FFFFFFFFFFF0F0F0F0F0FFFFFF54
:100500000000000000FFFF0F0F0F0F0F38444438AA
:10051000447C2A2A3E147E02020606027E027E02E5
:1005200063554941633844443C04407E201E200604
:10053000027E020299A5E7A5991C2A492A1C4C7241
:1005400001724C304A4D4D303048784830BC625AC8
:10055000463D3E494949007E0101017E2A2A2A2A58
:100560002A44445F444440514A444040444A514034
:100570000000FF0103E080FF000008086B6B0836F5
:1005800012362436060F090F060000181800000066
:100590001010003040FF0101001F01011E00191D55
:1005A0001712003C3C3C3C0000000000F0F89C8E20
:1005B0008783878E9CF8F00000FEFF03030303038C
:1005C000070EFCF80000FEFF0303030303070EFC05
:1005D000F80000FFFF00000000000000FFFF000027
:1005E000FEFF8383838383C7EE7C380000F8FC0E14
:1005F00007030303070EFCF800003F7FE0C0808084
:10060000C0E07F3FFFFF01010101010101FFFF0089
:1006100000FFFF0C0C0C0C1C3E77E3C100007FFFB9
:10062000C0C0C0C0C0E0703F1F00001F3F70E0C0EE
:10063000C0C0E0703F1F00007FFFC1C1C1C1C1E366
:10064000773E1C00001F3F70E0C0C0C0E0703F1F3D
:10065000000000000001FFFF01000000D5F08D1434
:10066000A1C881CFD9F1AF2000FF7FFBFFFFBFFF03
:10067000FFF7FFFDFFFFF77FFFDFFFFFFB7FFFFFC0
:10068000FFEFFEFFFFFBFF7FFF08101008100810B0
:10069000101008000000000000204040200001026F
:1006A000020102020102214040FF1F5B3FEBDDFF20
:1006B000F7BBEFFD7FE3CBE3FFFFC796C7FFFFEF7D
:1006C000FDFFE3CBE3FFFF7BFFFFDF7B3F9F6F7708
:1006D000ABDBD7CD5FBF77FFFFFFC1DCD3AF9FAEF2
:1006E000B0BBBDBDBAD7CC63FF080B00020202014C
:1006F00000090400000102020000052400100105A9
:1007000024010101042402060524060001070581D5
:100710000310004009040100020A0000000705025E
:100720000240000007058302400000040309041290
:10073000010002EF02014041233680000101020363
:100740000141726475696E6F204C4C4300417264C4
:1007500075696E6F204C656F6E6172646F00940FE7
:1007600011241FBECFEFDAE0DEBFCDBF12E0A0E064
:10077000B1E0E4E9F2E202C005900D92AC33B107BA
:10078000D9F726E0ACE3B2E001C01D92A83CB20765
:10079000E1F713E0C0EBD3E004C02197FE010E9413
:1007A0003D11CF3AD107C9F70E942C0C0C94481187
:1007B0000C9400002D9A08958FB18095807F669BE0
:1007C00088601C9B8460089590E1282F81E061FD82
:1007D00084E060FD880F62FD8295687F969FD0015E
:1007E0001124A20FA65BBD4F9C91982B40FF982728
:1007F0009C9308952F923F924F925F926F927F92B7
:100800008F929F92AF92BF92CF92DF92EF92FF9220
:100810000F931F93CF93DF93CDB7DEB727970FB614
:10082000F894DEBF0FBECDBF9F838E836A30A1F4E4
:10083000DC0155962C91559751968D919C9152972C
:10084000B8E02B9F800D911D1124EE81FF81928BCA
:10085000818B108A1786B5C06D3009F4B2C0AE81A5
:10086000BF811F960D911C91509700381105BCF067
:10087000EE81FF812589422F50E087859089F6E03F
:100880002F9F800D911D1124AE81BF8150969C93A6
:100890008E931F9756962C9121117DC092C0EE81A8
:1008A000FF8181889288F0E48F1691040CF7AE8165
:1008B000BF8155963C90C801B5E03B9E800D911DCF
:1008C000112418161906A4F6432C512CC401E8E093
:1008D0003E9E800D911D1124181619064CF6AE810E
:1008E000BF815496BC91BC83EE81FF81F389FD8367
:1008F00025E0629FB0011124CB0184559F4F3C013C
:100900001982F3012490F981F53009F4212C540166
:1009100028E02B8320FE03C03D813A8302C08C81F6
:100920008A839A81911104C0AC81BD81AB17F9F023
:1009300078018E2D801B8315D0F465018C2D8A19CA
:10094000831588F4E0E8EE16F10448F4F0E4CF16DD
:10095000D10428F44A81B601C7010E94E4032FEFB5
:10096000C21AD20AEBCF3FEFE31AF30AE2CF269482
:100970008B8181508B83A40CB51C8111CBCF9981C5
:100980009F5F9983040D151DD30111963D0196308B
:1009900009F0B7CF6DCF6AEF64039001659F300D0A
:1009A000112420583F4F281739075CF4AE81BF81CE
:1009B000ED91FC9111970190F081E02D6AE0CD015D
:1009C000099581E090E027960FB6F894DEBF0FBE40
:1009D000CDBFDF91CF911F910F91FF90EF90DF90EE
:1009E000CF90BF90AF909F908F907F906F905F90CF
:1009F0004F903F902F9008950895089580E090E0E3
:100A000008950C949C10BC0180E090E00C946F075A
:100A100020914902211103C08FEF9FEF08955FB726
:100A2000F89422E02093E9002091F20030E01216C1
:100A3000130614F421E030E0422FFC0184E641501B
:100A400038F02898809348029091F1009193F7CF65
:100A50002115310521F08091F200882319F05FBF44
:100A6000C90108958BE68093E800F9CF2FB7F89479
:100A700083E08093E9009091E800892F807295FFD0
:100A800004C09091F20080E4891B2FBF0895CF939A
:100A9000DF931F92CDB7DEB76983DC01ED91FC9146
:100AA0000280F381E02D41E050E0BE016F5F7F4F97
:100AB00009950F90DF91CF91089583E08093E9002D
:100AC0008091F200882319F08AE38093E80008956A
:100AD0000E94360590E00895CF93DF931F92CDB723
:100AE000DEB7FC018485958597FD05C02FEF3FEFAC
:100AF000358724870BC0CE0101960E940805019717
:100B000019F4898190E002C08FEF9FEF0F90DF9181
:100B1000CF9108950F931F93CF93DF931F92CDB77B
:100B2000DEB78C01FC018485958597FF0EC0CE0150
:100B300001960E940805019719F4898190E002C08E
:100B40008FEF9FEFF80195878487F801848595855D
:100B50000F90DF91CF911F910F910895FC01848533
:100B6000958597FD0BC09FB7F89482E08093E900CC
:100B70008091F2009FBF90E0019608959FB7F8948E
:100B800082E08093E9008091F2009FBF90E0089599
:100B90000E944311009769F0FC0101900020E9F7E1
:100BA0003197AF01481B590BBC018AE496E00C94C5
:100BB000910880E090E008958F929F92AF92BF924B
:100BC000CF92DF92EF92FF920F931F93CF93DF9319
:100BD000CDB7DEB7A1970FB6F894DEBF0FBECDBF7D
:100BE0006C01990FEE08FF08F7FE2BC06DE28AE456
:100BF00096E00E94FA038C0122273327A9012C19C1
:100C00003D094E095F0919A2CE0181967C019AE047
:100C1000892E912CA12CB12CCA01B901A5019401F6
:100C20000E94E410605DF70162937F012115310598
:100C30004105510589F7CF010E94CA05800F911F18
:100C40001DC0A701960119A28E010F5D1F4F8AE0FA
:100C5000C82ED12CE12CF12CCA01B901A7019601B3
:100C60000E94E410605DF80162938F012115310547
:100C70004105510589F7CF010E94CA05A1960FB61B
:100C8000F894DEBF0FBECDBFDF91CF911F910F91C2
:100C9000FF90EF90DF90CF90BF90AF909F908F909C
:100CA00008952F923F924F925F926F927F928F9210
:100CB0009F92AF92BF92CF92DF92EF92FF920F93EB
:100CC0001F93CF93DF935A01822E912C9401280F0A
:100CD000391F37FD9CC0803891050CF098C09B01EE
:100CE000205F3F4F2035310508F091C0AB0177FF01
:100CF00004C044275527461B570B477055279B01B7
:100D000077FF02C0295F3F4FE3E035952795EA95CD
:100D1000E1F777FF08C02150310968E070E0FB017E
:100D2000E41BF50BAF0139017694762C6624779499
:100D30006794680E791EE12CF12C00E010E023018D
:100D4000F0E84F0E511C68E070E01B01241A350AD0
:100D50002F3F6FEF36070CF447C0E201C00FD11FE1
:100D6000C65BDD4FD301A00FB11FA65BBD4F6C0169
:100D700060E070E068157905BCF5E0E8CE16D104B6
:100D800099F1D7FC29C02F3FFFEF3F0709F43BC083
:100D9000FB01EE0DFF1DEA0DFB1DE491042E01C0C9
:100DA000EE0F0A94EAF7FC91EF2BEC9341155105F5
:100DB00099F02730310581F0FB01EE0DFF1DEA0DA2
:100DC000FB1DE491F0E0022C02C0F595E7950A9432
:100DD000E2F7F881EF2BE8836F5F7F4F2196EFEF0B
:100DE000CE1ADE0A1196C6CF2F5F3F4F00581F4F15
:100DF000E80CF91C0115F1E01F0749F02830310516
:100E000009F0A6CF04C041155105B1F6E5CFDF9139
:100E1000CF911F910F91FF90EF90DF90CF90BF90F7
:100E2000AF909F908F907F906F905F904F903F908A
:100E30002F90089580E0EAE4F2E081118FEF002422
:100E400081938193819381930394D1F70895EAE488
:100E5000F2E0A0E0B8E000800EBC8111012C1197F7
:100E6000A0FDFDCF0192B9F70DB4089580916506FC
:100E700081110DC082E08093610684E08093620658
:100E8000109264061092630681E08093650681E605
:100E900096E008953FB7F894809142029091430202
:100EA000A0914402B091450226B5A89B05C02F3FF2
:100EB00019F00196A11DB11D3FBFBA2FA92F982F80
:100EC0008827820F911DA11DB11DBC01CD0142E0FB
:100ED000660F771F881F991F4A95D1F708958F9243
:100EE0009F92AF92BF92CF92DF92EF92FF926B01EF
:100EF0007C010E944A074B015C01C114D104E1044A
:100F0000F104F1F00E944A07DC01CB01881999092C
:100F1000AA09BB09883E9340A105B10570F321E001
:100F2000C21AD108E108F10888EE880E83E0981E05
:100F3000A11CB11CC114D104E104F10419F7DDCFE7
:100F4000FF90EF90DF90CF90BF90AF909F908F90E9
:100F500008958F929F92AF92BF92CF92DF92EF92BD
:100F6000FF920F931F93CF93DF936C017B018A0154
:100F700080910701882309F45CC08091490288238D
:100F800009F457C08091470280FF05C08091E000BE
:100F900082608093E000E801B12C8AEFA82E93E0F4
:100FA000892E2AE3922E209711F4BB20D9F10E94BA
:100FB000360581110AC0AA94AA20D9F161E070E037
:100FC00080E090E00E946F07EECF282F30E0C2173C
:100FD000D3070CF48C2F9FB7F8948092E9002091EE
:100FE000E80025FF1DC0282F30E0C21BD30BF701FE
:100FF000815020F041914093F100FACFE20EF31EB0
:10100000BB2019F09092E8000AC08091E80085FDAD
:1010100007C09092E800BB24B394209709F0B12C4C
:101020009FBFC1CF5D9884E68093460210161106DB
:1010300044F081E090E0F6019383828380E090E0C9
:1010400001C0C801DF91CF911F910F91FF90EF90E8
:10105000DF90CF90BF90AF909F908F900895409178
:10106000C4065091C5062091C2063091C3064217AE
:101070005307B4F49091E8009570E1F39091E80083
:1010800092FD19C08093F1008091C4069091C5062D
:1010900001968F739927892B19F48EEF8093E800BE
:1010A0008091C4069091C50601969093C5068093E1
:1010B000C40681E0089580E00895DF92EF92FF92E8
:1010C0000F931F93CF93DF93D82E8A017B01E40EF9
:1010D000F51EEB01CE15DF0571F0D7FE03C0FE0152
:1010E000849101C088810E942F0821968111F2CF3E
:1010F0008FEF9FEF01C0C801DF91CF911F910F913A
:10110000FF90EF90DF900895615030F02091F10052
:10111000FC0120830196F8CF289884E6809348024A
:101120000895CF92DF92EF92FF920F931F93CF9388
:10113000DF936C017A018B01C0E0D0E0CE15DF05B2
:1011400081F0D8016D918D01D601ED91FC91019056
:10115000F081E02DC6010995892B11F02196EECF83
:101160007E01C701DF91CF911F910F91FF90EF900A
:10117000DF90CF9008950F931F93CF93DF931F922B
:10118000CDB7DEB782E0898342E450E069EE76E0D5
:1011900080E80E945D080E943607DC0112960D91DE
:1011A0001C9113970115110589F0D801ED91FC915F
:1011B0000280F381E02DBE016F5F7F4FC80109956A
:1011C00097FD04C0F80100851185ECCF89810F904F
:1011D000DF91CF911F910F9108951F920F920FB63B
:1011E0000F9211242F933F938F939F93AF93BF93AD
:1011F0008091BE069091BF06A091C006B091C10635
:101200003091C70623E0230F2D3720F40196A11D4E
:10121000B11D05C026E8230F0296A11DB11D209324
:10122000C7068093BE069093BF06A093C006B093F6
:10123000C1068091420290914302A0914402B09174
:1012400045020196A11DB11D809342029093430275
:10125000A0934402B0934502BF91AF919F918F91AB
:101260003F912F910F900FBE0F901F9018951F92D6
:101270000F920FB60F9211248F939F938091E100EC
:101280009091E100937F9093E10083FF0FC0109253
:10129000E90091E09093EB001092EC0092E39093C0
:1012A000ED001092490298E09093F00082FF20C078
:1012B00093E09093E9009091F200992319F09AE35A
:1012C0009093E80090914602992339F0909146025C
:1012D000915090934602992389F190914802992365
:1012E00039F090914802915090934802992341F12E
:1012F00084FF10C08091E2008E7E81608093E200C6
:101300008091E1008F7E8093E100809147028E7E84
:10131000806111C080FF16C08091E2008E7E8061E6
:101320008093E2008091E1008E7E8093E1008091C5
:1013300047028E7E81608093470204C05D9ACDCFC4
:10134000289AD6CF9F918F910F900FBE0F901F902C
:1013500018951F920F920FB60F921124CF92DF9221
:10136000EF92FF920F931F932F933F934F935F93AF
:101370006F937F938F939F93AF93BF93EF93FF935D
:10138000CF93DF93CDB7DEB76C97DEBFCDBF1092A2
:10139000E9008091E80083FFFBC168E0CE0145963B
:1013A0000E94840882EF8093E8008D8987FF05C042
:1013B0009091E80090FFFCCF03C09EEF9093E8006F
:1013C000982F907609F0C6C09E894F89588D2F8935
:1013D000F88C91110CC0803829F48091BD0680935F
:1013E000F10002C01092F1001092F10045C191305D
:1013F00051F4811141C14130510509F03DC1809145
:10140000BD068D7F0BC0933061F4811135C1413031
:10141000510509F031C18091BD0682608093BD06FF
:101420002BC1953049F48091E80080FFFCCF822FDA
:1014300080688093E30020C1963009F05EC00B8D78
:101440001C8D22E01092E9001092C5061092C4068D
:10145000F21232C01092C3061092C2060E94BB085C
:1014600099E0BE016F5F7F4FDB01E92F1D92EA9586
:10147000E9F79983FA8291E09E8390EA98879AEF40
:1014800099872091C4063091C506275F3F4F3C8362
:101490002B838D831092E9001092C5061092C4062A
:1014A0001093C3060093C20649E050E080E00E941A
:1014B0005D080E94BB08E0C01093C3060093C206FB
:1014C0000E943607DC0112960D911C9113970115AD
:1014D000110509F4BBC0D801ED91FC910480F581A0
:1014E000E02DBE016B5E7F4FC8010995009709F0A2
:1014F000C7C0F80100851185EACF973009F445C1CE
:10150000983021F481E08093F100B6C0993009F061
:10151000B3C0837009F039C1EBEFF1E081E031E055
:1015200096E32081211109C08EE78093EA00109292
:10153000EA008F89809349029FC08093E90030932D
:10154000EB0021912093EC009093ED008F5F8730AA
:1015500041F7EACF8B8D9C8D1092E9001092C50661
:101560001092C4069093C3068093C206898D8111A0
:1015700053C08E899D89913A49F4813209F005C1A1
:1015800047E050E060E071E080E0BBC0913209F0DC
:10159000FCC0833269F48F89988DA0E0B0E080931D
:1015A000080190930901A0930A01B0930B0164C054
:1015B000803269F48091E80082FFFCCF67E080E030
:1015C00091E00E9484088BEF8093E80055C082323E
:1015D00009F052C08F8980930701EEEFFFE78591F4
:1015E00094918B3F9C4D19F0E0E0F8E002C0EEEFE3
:1015F000FAE08091000190910101A0910201B09167
:101600000301803B9440A105B10509F09EC0809183
:10161000070180FF79C099C00E943607FC01028152
:1016200013810115110509F4B0C0D801ED91FC91A9
:101630000190F081E02DBE016B5E7F4FC8010995DE
:1016400081111AC0F80100851185EBCFF1E0FF167A
:1016500009F44EC0F3E0FF1298C08F89882309F483
:101660004AC0823089F440E860E18DE497E00E944E
:10167000C50F882309F489C08EEF8093E80088C0E5
:1016800018161906CCF381C0813029F440E86BE0CC
:1016900081E497E0ECCF833009F077C00E943607F1
:1016A000DC011296ED90FC9013978E010F5F1F4F97
:1016B0006801E114F10479F0D701ED91FC91068005
:1016C000F781E02DB801C7010995080F111DF70139
:1016D000E084F184EECFD8011C92F6010190002045
:1016E000E9F73197BF016C197D0940E0C601BFCF12
:1016F0006FE277E002C06BE277E0FB01449150E0DB
:1017000080E80E945D08B8CFEE3F2AE0F20751F072
:10171000808191818737A7E79A0721F09093FF0A8C
:101720008093FE0A87E797E791838083809160002A
:101730008093C6069BE088E10FB6F894A895809345
:1017400060000FBE9093600097CF808191818737B2
:10175000974709F091CFA8958091600088618093A8
:1017600060008091C60680936000EE3FBAE0FB0700
:1017700039F08091FE0A9091FF0A918380837CCF9B
:101780001092FF0A1092FE0A77CF81E28093EB005D
:101790006C960FB6F894DEBF0FBECDBFDF91CF9130
:1017A000FF91EF91BF91AF919F918F917F916F9139
:1017B0005F914F913F912F911F910F91FF90EF906B
:1017C000DF90CF900F900FBE0F901F9018950F9342
:1017D0001F93CF93DF938C0181E090E00E9401057D
:1017E00080FF32C08AE090E00E9401059FEF980FD1
:1017F0009E3F50F522E330E0D80150963C932E9363
:101800001F9728E330E052963C932E935197CBE0FC
:10181000D0E0D801ED91FC910190F081E02D682F8E
:10182000C8010995CE010E9401052196C131D1055B
:1018300081F780E00E94270788EE93E0DF91CF9147
:101840001F910F910C940305DF91CF911F910F9180
:10185000089504970C94E70B789484B5826084BD56
:1018600084B5816084BD85B5826085BD85B58160A4
:1018700085BD80916E00816080936E001092810022
:1018800080918100826080938100809181008160DD
:10189000809381008091800081608093800080919E
:1018A000910082608093910080919100816080938B
:1018B0009100809190008160809390008091C100A0
:1018C00084608093C1008091C10082608093C100D8
:1018D0008091C10081608093C1008091C3008160CC
:1018E0008093C3008091C00082608093C00080918B
:1018F000C20081608093C20080917A0084608093EE
:101900007A0080917A00826080937A0080917A00D8
:10191000816080937A0080917A00806880937A0059
:10192000109249021092BD06109247028091D70092
:1019300081608093D70080EA8093D80089B5806168
:1019400089BD89B5826089BD09B400FEFDCF61E023
:1019500070E080E090E00E946F078091D8008F7C5B
:1019600080618093D8008091E000807F8093E000C8
:101970008091E1008E7E8093E1008DE08093E20013
:10198000559A209A81EC80937C0085B1806F85B94F
:1019900084B1877E84B984B1876E84B95E9A5F987A
:1019A0008AB1806D8AB9769A6E9881B3806F81BB57
:1019B000899880B38D7080BB80E58CBD81E08DBD42
:1019C00085E090E00E9403055F9A85E090E00E9428
:1019D00003055E985C98ECE5F6E084918EBD00000E
:1019E0000DB407FEFDCF319626E0E936F207A9F7E0
:1019F0005C9A81E8809364008091650081608093A7
:101A0000650080E00E9427070E94DC0387FF24C056
:101A10005C9885EA8EBD00000DB407FEFDCF5C9A90
:101A20002E982F982D988091640080628093640096
:101A300081E083BF889513BEFCCF2D980E94DC0304
:101A40008478843871F00E94DC038471843131F130
:101A500088EC90E00E9403050E94DC0382FDEDCF3C
:101A60003AC00E94DA0388EC90E00E9403052F98A8
:101A700082E090E00E949C108F3F29F06FEF82E09F
:101A800090E00E94A41084EF91E00E9403052F9A39
:101A90000E94DC0384788438D9F3D5CF0E94DA031E
:101AA00088EC90E00E9403052E9882E090E00E946E
:101AB0009C10882329F060E082E090E00E94A4104E
:101AC00084EF91E00E9403052E9A0E94DC0384714A
:101AD0008431D9F3BDCF0E94DA0382E090E00E9406
:101AE0000105882319F03E9A3F9A02C03E983F981C
:101AF00081E090E00E940105182F147081FF38C02A
:101B000011112E98C0EFDFEF0E94DC0386FF05C0A5
:101B10002E9A2F9A0E94DA032BC0112329F0C43089
:101B2000D10511F42E9A2F9881E00E94270728E50D
:101B30004CEA55E0BE0184E190E00E94510680E04D
:101B40000E9427078FE090E00E9403052196C9318B
:101B5000D105D1F6112311F02F9A2D9880E991E04B
:101B60000E9403050E94DA038AE496E00E94E70BD4
:101B700082E390E00E9403050E94DC038111F8CF0C
:101B800081E28093550680E00E94270780916400DF
:101B90008E7F8093640080917A00806480937A00C5
:101BA00080917A0086FDFCCFC0917800D0917900B9
:101BB0000E944A078E0120E030E09801112700279B
:101BC000600F711F821F931F20916400216020937A
:101BD0006400611571058105910511F00E94931053
:101BE0000E941A0710925C0610925B0610925A0629
:101BF00010925906EEE06E2EF0E12F2E312C772454
:101C000073948FB7F8944091BE065091BF066091CF
:101C1000C0067091C1068FBF80915606942F981B05
:101C2000892F90915706992329F080935806109296
:101C3000570664C190915506891740F48F5F891744
:101C400008F05CC173BE889513BE58C170925706E8
:101C500040935606809151069091520601969093BA
:101C600052068093510680915306809354060E9439
:101C7000DC03809353060E941A0710925C061092B0
:101C80005B0610925A06109259068091400290917C
:101C900041028130910581F18230910509F427C11B
:101CA000892B09F028C181E092E00E94CA051092B8
:101CB0005A061092590668E070E070935C066093D3
:101CC0005B068FE092E00E94CA0510925A061092BD
:101CD000590680E190E090935C0680935B068FE16B
:101CE00092E00E94CA058091540683FD04C1809150
:101CF000530683FF00C10AC10E94DC0387FF0CC0AA
:101D000080913C0290913D02883191052CF401961E
:101D100090933D0280933C020E94DC0384FF0DC03F
:101D200080913C0290913D02893B2FEF92072CF06D
:101D3000019790933D0280933C020E94DC0385FF53
:101D40000CC080913E0290913F02883391052CF4A3
:101D5000019690933F0280933E020E94DC0386FF2F
:101D60000DC080913E0290913F0289366FEF960739
:101D70002CF0019790933F0280933E02E12CF12CCE
:101D8000C0E0D0E0C12CD12C00E010E0A0903E02D9
:101D9000B0903F022501B7FE03C07FE0470E511C03
:101DA00074E0559447947A95E1F751944194510821
:101DB0009801240D351D2E303105E0F580913C024F
:101DC00090913D02AC0197FF02C0415F5F4F64E01C
:101DD000559547956A95E1F7BE01641B750BAB01FC
:101DE0006730710538F5649EB001659E700D112451
:101DF000FB01E20FF31FEE0FFF1FE05FFE4F0190AC
:101E0000F081E02D45E0EE0FFF1F4A95E1F7E7591D
:101E1000F94FB1010E9415114C018E0C9F1CC50198
:101E2000B1010E94151120E1AF01B4018C0D9D1D7F
:101E30000E9451060F5F1F4F70E1C70ED11C093081
:101E4000110509F0A3CF219680E1E80EF11CC53001
:101E5000D10509F097CFC0E0D0E000E010E040E00D
:101E6000B801CE010E94E4030F5F1F4F0830110537
:101E7000B1F72196C033D10581F710925A0610921E
:101E8000590610925C0610925B06C2010E94DC05A6
:101E900088E292E00E94CA0580913C0290913D0246
:101EA00097FD0F9624E0959587952A95E1F79195F2
:101EB000819591090E94DC05C8E3D0E008E110E0BB
:101EC00040E0B801CE010E94E4030F5F1F4F0832CB
:101ED0001105B1F72196C834D10581F780915406D8
:101EE00083FD09C08091530683FF05C016C08AE2B6
:101EF00092E00E94CA0580E00E94270760E070E03F
:101F0000672B09F47ECE0E94000079CE81E090E03C
:101F10009093410280934002EECF62E070E07093B4
:101F2000410260934002E7CFEDE6F6E013821282B1
:101F300088EE93E0A0E0B0E084839583A683B78326
:101F400088ED91E0918380838FEF9FEF9587848761
:101F5000EAE4F6E0138212821186128680E183871A
:101F60001086178215868AEE91E09183808388EF30
:101F700091E095838483108A1786128A118A81E002
:101F8000838B148A858B168A0895DF92EF92FF92D5
:101F90000F931F93CF93DF93D82EF92EE42E062FA5
:101FA00010E0C8010196880F0E942F0883E00E946C
:101FB0002F08CD2DDF2D0C0F1D1FC017D10789F065
:101FC000E7FE03C0FE01849101C088810E942F08B2
:101FD000F82E80E00E942F088F2121968111EDCFED
:101FE00001C081E0DF91CF911F910F91FF90EF90A1
:101FF000DF9008958F929F92AF92BF92CF92DF921F
:10200000EF92FF92CF93DF93EC01688179818A810F
:102010009B81611571058105910521F464E279EDDB
:102020008BE597E02DE133EF41E050E00E94B210E4
:1020300049015A019B01AC01A7EAB1E40E94D11009
:102040006B017C01ACEEB4EFA50194010E94DF109E
:10205000DC01CB018C0D9D1DAE1DBF1DB7FF03C064
:102060000197A109B04888839983AA83BB83BC01E7
:10207000CD019F77DF91CF91FF90EF90DF90CF90D0
:10208000BF90AF909F908F9008958F929F92AF9244
:10209000BF92CF92DF92EF92FF9260910C0170910C
:1020A0000D0180910E0190910F016115710581055F
:1020B000910521F464E279ED8BE597E02DE133EFB2
:1020C00041E050E00E94B21049015A019B01AC016D
:1020D000A7EAB1E40E94D1106B017C01ACEEB4EF31
:1020E000A50194010E94DF10DC01CB018C0D9D1D28
:1020F000AE1DBF1DB7FF03C00197A109B048809373
:102100000C0190930D01A0930E01B0930F01BC013F
:10211000CD019F77FF90EF90DF90CF90BF90AF9071
:102120009F908F90089560930C0170930D018093A0
:102130000E0190930F010895F999FECF92BD81BDD4
:10214000F89A992780B50895262FF999FECF1FBADE
:1021500092BD81BD20BD0FB6F894FA9AF99A0FBED0
:1021600001960895052E97FB1EF400940E94C91055
:1021700057FD07D00E94E41007FC03D04EF40C94E6
:10218000C91050954095309521953F4F4F4F5F4F67
:10219000089590958095709561957F4F8F4F9F4FD3
:1021A00008950E940611A59F900DB49F900DA49FC5
:1021B000800D911D11240895B7FF0C94D1100E9439
:1021C000D110821B930B0895A1E21A2EAA1BBB1BF0
:1021D000FD010DC0AA1FBB1FEE1FFF1FA217B307F3
:1021E000E407F50720F0A21BB30BE40BF50B661F09
:1021F000771F881F991F1A9469F7609570958095CD
:1022000090959B01AC01BD01CF010895A29FB00143
:10221000B39FC001A39F700D811D1124911DB29F1A
:10222000700D811D1124911D089597FB072E16F442
:10223000009407D077FD09D00E94291107FC05D032
:102240003EF4909581959F4F0895709561957F4FCD
:102250000895AA1BBB1B51E107C0AA1FBB1FA617ED
:10226000B70710F0A61BB70B881F991F5A95A9F73F
:1022700080959095BC01CD010895EE0FFF1F05904C
:10228000F491E02D099481E090E0F8940C944811C9
:04229000F894FFCFF0
:1022940000E1000000000000FFFFFFFF010000005C
:1022A4000200000000000100000000000000020025
:1022B4000000000000000000000002000000010017
:1022C4000100010000000100000000000000000007
:1022D40000000300000000000000000000000000F7
:1022E40000000100030000000000000002000000E4
:1022F40000000000030000000000030002000100D1
:1023040001000100000001000100000002000000C3
:1023140000000000000000000200000000000000B7
:1023240002000100000000000300020000000000A1
:10233400000001000300000000000200020002008F
:102344000000000001000100000001000100020083
:102354000000010001000200020000000000000073
:1023640000000300000000004705A90768055D059B
:10237400AE056C058A0500000000FA039108FE040E
:10238400FD04E70BFCFF0000290C00C18081000064
:10239400005469746C652053637265656E0A004469
:1023A4006F6E736F6C2041726475696E6F0A0050B2
:1023B4007265737320410A002C0047616D65204FDC
:0C23C4007665722053637265656E0A0036
:00000001FF
